:020000040000fa
:080000000002040000000000f2
:020000040000fa
:10000800000000002c4c0000000000000a4c00001a
:100018003c4c00004c4c00000000000000000000b8
:10002800000000006a480000000000004c47000083
:10003800000000003849000000000000de47000012
:10004800244800000000000000000000d05d00000f
:100058000000000000000000000000000000000098
:100068000000000000000000000000000000000088
:100078000000000000000000000000000000000078
:100088000000000000000000000000000000000068
:1000980000000000000000004c5e0000ca5e000086
:1000a8000000000000000000000000000000000048
:1000b8000000000000000000000000000000000038
:1000c8000000000000000000000000000000000028
:1000d8000000000000000000000000000000000018
:1000e8000000000000000000000000000000000008
:1000f80000000000000000000000000000000000f8
:1001080000000000000000000000000000000000e7
:1001180000000000000000000000000000000000d7
:1001280000000000945d0000b25d000000000000c7
:100138006e5d0000525b000000000000000000003f
:1001480000000000000000000000000000000000a7
:100158000000000000000000000000000000000097
:100168000000000000000000000000000000000087
:100178000000000000000000000000000000000077
:100188000000000000000000000000000000000067
:100198000000000000000000000000000000000057
:1001a8000000000000000000000000000000000047
:1001b8000000000000000000000000000000000037
:1001c8000000000000000000000000000000000027
:1001d8000000000000000000000000000000000017
:1001e8000000000000000000000000000000000007
:0801f8000000000000000000ff
:020000040000fa
:10020800000000002c4c0000000000000a4c000018
:100218003c4c00004c4c00000000000000000000b6
:10022800000000006a480000000000004c47000081
:10023800000000003849000000000000de47000010
:10024800244800000000000000000000d05d00000d
:100258000000000000000000000000000000000096
:100268000000000000000000000000000000000086
:100278000000000000000000000000000000000076
:100288000000000000000000000000000000000066
:1002980000000000000000004c5e0000ca5e000084
:1002a8000000000000000000000000000000000046
:1002b8000000000000000000000000000000000036
:1002c8000000000000000000000000000000000026
:1002d8000000000000000000000000000000000016
:1002e8000000000000000000000000000000000006
:1002f80000000000000000000000000000000000f6
:1003080000000000000000000000000000000000e5
:1003180000000000000000000000000000000000d5
:1003280000000000945d0000b25d000000000000c5
:100338006e5d0000525b000000000000000000003d
:1003480000000000000000000000000000000000a5
:100358000000000000000000000000000000000095
:100368000000000000000000000000000000000085
:100378000000000000000000000000000000000075
:100388000000000000000000000000000000000065
:100398000000000000000000000000000000000055
:1003a8000000000000000000000000000000000045
:1003b8000000000000000000000000000000000035
:1003c8000000000000000000000000000000000025
:1003d8000000000000000000000000000000000015
:1003e8000000000000000000000000000000000005
:0803f8000000000000000000fd
:020000040000fa
:100400008fe022000e5f24000e0188000000000033
:1004100000012000200288000c00070060e6200098
:100420000100200011000700000020000000e00093
:1004300002003200000002000000000070450200cf
:10044000000000000040da000000fe004440a90067
:10045000c00220000000e000030032000000200085
:10046000a00188004440a800000006009101880017
:10047000800078000000eb0015003700e2804000ab
:1004800032a0b4009101ba00e280400032a0b40072
:100490009102ba00e280400032a0b4000002eb00fa
:1004a000472bde00f507b200602ce10004003a00a3
:1004b0000059eb008301e900fdff3e000400370016
:1004c0006128e100010032000082eb000400070017
:1004d0001101ba000200e000e8ff3a000000060047
:1004e0003159ba008301e9000c0032002159ba00e9
:1004f0008301e900080032000400e00003003a0034
:10050000e280400032a0b400f5ff370011d9ba00f4
:100510008301e900faff3a008100e800e180400031
:1005200032a0b40000000600839f68000100e000d4
:1005300002003d0060001000e08018000300e000b1
:1005400002003d0060011100e0811900c9020700ae
:100550004f00e00002003b0060001000e080180047
:10056000000006000001be003f0007000470a70065
:1005700003f0a1006509b100160032000d0035003e
:100580006828e10006003500f0ff2f00f1ff27008a
:100590000300e00013003b000100280000000500fc
:1005a00000004000818048008502e900fcff3a001d
:1005b00008003700f88f420002003c008000eb008a
:1005c000000005008100d1000080d3008502e80012
:1005d000fcff3a000300e00002003b006000100056
:1005e000e0801800000006000001be001e000700a9
:1005f0000470a70003f0a10003f8a30013003a0061
:100600006509b10010003200090035006928e100d9
:100610000200350001002800000005000000400035
:10062000818048008502e900fcff3a0000000600d6
:10063000f88f4200050035008100d1000080d30012
:100640008502e800fcff3a00000006008000eb0095
:10065000000005004f89de0082017800b9043700f0
:100660006011b800c7043700c70ade00f107b20006
:10067000f50fb20008003200e1cf42000200320064
:100680000170a00024000500810f700001003200fd
:100690000408050044000500810f700002003a00c4
:1006a000140005008502e9000000400081c04800f8
:1006b000fcff3b000170a00024000500889fbe00e5
:1006c0008a9fbe003004be002005be000404440022
:1006d00085844c0006054d0087854d000898be00b6
:1006e0000a90be000440e10005c8e10006d0e10028
:1006f00007d8e10002003100680040001008e8005f
:100700004f05be004f04be0000000600889fbe00db
:100710008a9fbe008c1f7800000678003c04be0053
:100720002c05be000400540085805c0006015d00bd
:1007300087815d00009ebe00029ebe00100020006a
:100740000440e10005c8e10006d0e10007d8e1005f
:10075000010039000000eb001c0e10004f0678006d
:100760004f05be004f04be00000006001200fa0054
:10077000889fbe008a9fbe008c9fbe000205be00ff
:100780000004be00e4b79f00f5b79f0086bf9f003e
:1007900097bf9f000000eb00d0b79f00c0b79f003d
:1007a000b0b79f00a0b79f0090b79f0000067800e9
:1007b000fd032000dfb197004fb097000381410097
:1007c000bfb09700e08f510004003d0029000700f2
:1007d0007e805700b9ff070003003700250007009f
:1007e0007e805700c9ff0700dfb09700e08f500000
:1007f0000700350014002000050020006033b80019
:1008000008047200898472000a0573008b857300e6
:100810000c06e8008d0f5600e6ff3400e08f500014
:1008200006003d006fb29700ffb297000fbb970024
:100830009fbb97007e805700a0ff07005fa897002e
:10084000e00f500004003a001fb49700afb49700c7
:100850003fb59700cfb597000800be000a01be0063
:100860004f06be004f05be004f04be000080fa00d8
:1008700000000600cf01de0002817100b2b79f00c8
:100880004f09de000000400000007100a0b79f008b
:100890000fb097004f01de008180400081007100a1
:1008a00091b79f007faa9700cf20de000000400094
:1008b0000080700080b79f000800be000a01be00e3
:1008c0004f18de000402420000027200f4af9f00e5
:1008d0000804440089844c000a054d008b854d00b6
:1008e0004fb29700dfb297006fb39700ffb3970046
:1008f00000000600881f780018002000881f78007c
:100900009aff07008f87e9004f0478000000060077
:10091000801feb0095ff07008f87e90000000600ad
:10092000889fbe008a9fbe008c1f7800e00f500099
:10093000e08f5800e00f5900e08f59000f003d0094
:100940006044b8006055b8000000540081805c002d
:1009500002015d0083815d001c0020000820e10091
:1009600009a8e1000ab0e1000bb8e1000d003d006c
:10097000190007000006eb000a0037000006eb0034
:10098000e00f5200e08f5a00e00f5b00e08f5b0049
:1009900004003d006044b8006055b8000e00070038
:1009a0001c002000d3ff0700e00f560006003200b5
:1009b0006022b8006033b8000000520081805a0005
:1009c00002015b0083815b004f0678004f05be008b
:1009d0004f04be00000006000402540085825c0043
:1009e00006035d0087835d0000000600889fbe004f
:1009f0008a9fbe008c1f7800e00f5000e08f5800e7
:100a0000e00f5900e08f59000d003d006044b80030
:100a10006055b8000000540081805c0002015d0058
:100a200083815d001c0020000820e10009a8e1008e
:100a30000ab0e1000bb8e1000d003d0008003700ee
:100a40000006eb00e00f5200e08f5a00e00f5b0061
:100a5000e08f5b0006003d006044b8006055b800c0
:100a60000402540085825c0006035d0087835d00fc
:100a7000a7ff0700e00f5600060032006022b80012
:100a80006033b8000000520081805a0002015b0010
:100a900083815b004f0678004f05be004f04be0007
:100aa0000000060007f82700078361000638e10010
:100ab00004003a00f7072000878361008703710074
:100ac00001003a0003f0a200889fbe008a9fbe008a
:100ad0008c9fbe00470ade000480a100c71ade001a
:100ae0000580a10007002800078560008785610058
:100af000f70f20000720e1009e0032000728e100e8
:100b00009c003200010678000400e000b4003200ce
:100b1000f7072000878060000170a0000500e0005a
:100b2000c0003200f7072000878161000370a00039
:100b3000050652000f003a000b50e1000b00320096
:100b40000308e10002003a000200e1007e003200ea
:100b50000204500083845800040031000001fd00ad
:100b60008101fd008402fd008a05fd006044b8009b
:100b7000210037000520e10005003d000001fd00d7
:100b80008101fd008402fd008a05fd00050652007a
:100b90007a60e100050035000170a1004722dd0008
:100ba000848070008a807000630037006044b80061
:100bb000ef02660007ff2f00070666000500e00051
:100bc00006003400f08312008714dd000511de00fa
:100bd000071bdd00060171008519de007060e10071
:100be00005003500090478008204780003017800cc
:100bf0008001eb00700656000b50e10003003a0044
:100c000002004000838048000400370060041400a4
:100c1000e0841c0002005800838058000188a30073
:100c2000060032008100d1000080d3008984d30007
:100c30000884d3000402e800270037000178a300ed
:100c400025003a000100e000030032008186cf0059
:100c5000698656000a0037008c0020000000e00082
:100c600004003a0009007800880478000004eb00d2
:100c7000700252008086cf000d0646000c06e90087
:100c80007060e100060035008000780009007800ff
:100c9000880478000004eb007006560070025200d1
:100ca0000c00e0000c0034008c08dd00f00316009e
:100cb0000703de00868070000c00dd00074bde00bd
:100cc000060070008c4cdd000743de008684740053
:100cd0000c44dd000c0252006120e10020003500d0
:100ce000610160000700280087816400f7ff27008a
:100cf00087836400070374000300e00006003200ed
:100d000082037300040032000000e800e080480025
:100d10000188a3000e003a00f70f20000720e10031
:100d20004a003d000170a1004722dd0081007200f1
:100d30008a8070000000be004f06be004f05be0056
:100d40004f04be00000006006000b800faff370044
:100d50008100d1000080d3000402e800eeff3700dc
:100d60000401780089017400790207008a8070000c
:100d7000f1ff370058030700070278000001fd006b
:100d80008101fd005403070087027800850372008b
:100d90000778a300040032000001fd008101fd007e
:100da0002f020700e4ff3700850362000768a300f5
:100db000080032000b50e10003003200f0ff2f006a
:100dc000f1ff2700dcff37000001fd008101fd007d
:100dd000d9ff37000468a300d7ff3200faff3700bd
:100de000f8ff2700888360000b003a000000e00055
:100df00009003a008303640082837300020032001a
:100e00000200be00ccff37000b50e100ceff3a00dd
:100e10000200be00c8ff37001400200081006400fb
:100e20003eff3700f8ff27008883610004003a0086
:100e30000200e00002003a008c007800beff37009c
:100e4000150020008301640039ff370001f82700f6
:100e50000000200081007500b7ff370003836800a1
:100e60000700280007036300470ade000480a10092
:100e7000c71ade000580a100f70f20000720e1005f
:100e8000420032000728e10040003200889fbe0087
:100e90008a9fbe008c1f7800f107b200f307b200f2
:100ea0000400e000640032000170a0000500e000d2
:100eb000680032000370a00085054200eb07b10016
:100ec0000204b8000302b8008484440060854a002c
:100ed000020ab800848444000a854a00030ab80064
:100ee00004054500040033000804d0008984d200c2
:100ef0000a85d2008b05e9006158e1003d0035000c
:100f000002102000090161000308200089816100ae
:100f1000f70720008783640008867300c84cde0052
:100f2000c853dd00878474004855de000300e000ec
:100f30000600320082037600040032008904e800d3
:100f400060054d000a88a3000c003a00f70f20004e
:100f50000758e10044003d000a70a100c75ddd00b4
:100f60000a8575008a007300090078004f06780032
:100f70004f05be004f04be00000006000a05d10068
:100f80008984d3008b05e800f0ff3700881f7800c4
:100f900006047800d0020700070278000001fd0077
:100fa0008101fd00cc0207008702780085037200f2
:100fb0000778a300050032000001fd008101fd005b
:100fc000a70107004f0478000000060085037200a7
:100fd0000748a30003003200f0ff2f00f1ff2700b5
:100fe000f8ff37000000200001f82700888070001b
:100ff000f4ff3700880178004848dd0080817100e7
:101000004848de00c850dd0001007000c850de0016
:10101000060478000b017800cd010700888070007d
:10102000d2ff37000500e000050032001700200065
:101030007d0007009dff370081037000f9ff3a0033
:10104000860078004f0678004f05be004f04be00b2
:101050000000050083037100f9ff32002700200023
:101060007100070094ff370001f8270086807000a8
:10107000f4ff3700020250008382580061003900fb
:101080000303710062003200050372005900320050
:101090000300e0005500330017003a000100e000b3
:1010a0004b0032000208e100060031001100090087
:1010b0004288d800010178008001eb008000eb003d
:1010c000000006006110e100550032000002be0081
:1010d000110009008280d8008002780004007800a6
:1010e000110009004288d800010178008001eb005e
:1010f0008500780000000600889fbe008a9fbe0021
:101100008c9fbe000386cf000c06e9008c1f780080
:101110008c19dd00f00216000512de0084817100da
:101120000c11dd000003be008004eb00053cde0076
:101130008c3bdd000532de00848373000c33dd0060
:101140000700780088007800110009004388d80063
:101150000202b8000306b8008c82420060854e008f
:101160008005eb000402530085825b000a055c00e9
:101170008b855c000b0033008000eb004f0678008d
:101180000c21de00700516000a2ddd000a01710039
:101190008c29de004f06be004f05be004f04be0086
:1011a000000006000202420083824a0060054d00f2
:1011b000e0854d000000e9000b00e000eeff3d007f
:1011c0000202420083824a000000e900eaff370081
:1011d0000000e00012003200110009000280d80077
:1011e000010178008000eb00000006000401be0051
:1011f000010037006011b800100020008000eb00f3
:10120000000006000001be006000b80000000600fb
:101210000001be00f0ff2f00f1ff2f0000000600cc
:101220006011b80000000600889fbe000004eb00bb
:101230006138e10016003a000100e00008003a00c1
:10124000c800de004800dd00880020000100e0004a
:1012500003003a00c800de004800dd0068044400d6
:101260008184cf00e9845400060034008908dd0041
:10127000f08314008703de00878070000900dd0022
:1012800009044400610214004f04be00000006007f
:101290000300e00008003a00c811de004811dd003c
:1012a000880020000300e00003003a00c811de00bf
:1012b0004811dd00680444008384cf00e9845400b1
:1012c000060034008919dd00f08314008713de0066
:1012d000878171000911dd0009044400e102140056
:1012e000e9ff3700889fbe008a9fbe008c9fbe002a
:1012f0001b0020000202be000586680006002800d0
:10130000060666004709de00f20fb20082003200d6
:101310000243e80080003200c729de00f30fb2006c
:101320007d0032000343e8007b003200f107b20089
:101330000170a000f507b2000570a000c708dd002d
:101340004903de00868070004700dd00c72add000b
:101350004923de00868272004722dd00030551002a
:101360000403500085835800030031000000400052
:10137000818048000a05e9008c1f78008a9fbe0022
:1013800004005000858058000402420085824a0013
:1013900000004000818048000005eb000004be0012
:1013a0006033b8000406be000d48e100560031006d
:1013b000110009004dccd8000c01b8000d02b80096
:1013c0008481410060824a008283530003045c00f0
:1013d00084845c0060055d000a00e00025003a009e
:1013e000800578000d40e100490031008800780058
:1013f00007007800110009004d88d8000c01b800e2
:101400000d02b8008481410060824a00600311002f
:1014100083835b0004045c00e0845c000900e0005e
:1014200021003a004f01be000300e0002b00320013
:10143000e3016000070673008c8171000100320037
:10144000640070004200de004e5edd000c007000a3
:10145000c258de0001e0a000e7000700cf017800dd
:10146000818071004f06be004f05be004f04be00d4
:10147000000006008c8343000d044c00e0844c0007
:1014800060054d000000e9000a00e000d4ff3200d2
:101490008c8343000d044c00e0844c0060054d003b
:1014a0000000e900ceff37000c0343008d834b00a2
:1014b00060044c00e0844c000000e9000900e000fa
:1014c000d8ff32000c0343008d834b0060044c00b6
:1014d000e0844c000000e900d2ff37004200de004b
:1014e0004e5edd000c007000c258de0001e0a0007e
:1014f000cf0178000300e000daff32006000100046
:10150000e0801800d7ff3700f0ff2f00aaff370058
:10151000f0ff2f00b9ff37000404be006e01070082
:10152000870678000004fd008104fd006a010700c1
:10153000078366000678a300030032000960a70055
:101540000800be002c0037000d78a3000200320016
:101550000800be00280037000778a30026003a00e4
:1015600001f0a10009f0a1000668a3000300320009
:10157000f1ff2700f0ff2f00baff37000d68a3002e
:10158000030032000800be008c807000b5ff3700f9
:101590000768a30007003a000648a30003003200d2
:1015a000f1ff2700f0ff2f00aeff37000d48a3002a
:1015b000030032006000b8008c807000a9ff370083
:1015c0000748a3000400320001f8270000002000b3
:1015d0008c807000a3ff37002a0007000004fd0084
:1015e0008104fd0002057800260007000802be0005
:1015f0008a01780059ff37000160a0001202200024
:101600000240880097ff37000100e000120032001e
:101610000500e00010003200889fbe008a9fbe00d7
:101620008c9fbe000006eb0001f8a300030032000f
:1016300060001000e08018000cf0a00005f8a30086
:101640000300320060021200e0821a000cf0a200d7
:101650008005eb0041ff37006000b8000200050084
:101660000478a300040032000578a30003003200d0
:101670000168a30001003a000200be000160a00062
:10168000000006004f0ade004709de00f107b20045
:10169000f20fb2000b003200f207b1000170a0009f
:1016a000c708dd00c901de00838070004700dd004f
:1016b0000400a6000000060060001000e080180092
:1016c00000000600810f700001003a0000000600d3
:1016d0008182cf000500e00010003e008082cf0034
:1016e000ee8242007028e1000400390007003e004d
:1016f000800078000000eb000e00370070831200bd
:101700008600de000500dd000a003700708352000d
:101710008600dd000000eb0006003700e282520088
:101720008508dd00708312000603de0086807000ed
:101730000500dd007507b0000501ea000400a60001
:101740000000060060001000e080180000000600a5
:101750000100e00026003200610111007810e10074
:1017600023003c006022b8007010e1000400350046
:1017700080027800010078008000eb0070015100c9
:101780000200e0000900340070031100062add00a9
:10179000822ade008603dd00878272000200de00fe
:1017a000860bdd00070070008208de008481710076
:1017b000f4ff270004826200848171000400280085
:1017c000848262006102600005f0a600000006004d
:1017d00004827100070032000000e800e080480049
:1017e000000006000002be006000b800efff3700f6
:1017f0006000b80000000600810170002700320080
:101800008002eb0001f8a30003003200600010002a
:10181000e080180015002000f407200002024200ba
:1018200020003400f7032000870360000604200036
:101830000003630002082000000161004700de0091
:10184000c909dd0000807100c708de000600e00065
:101850000800320087037100060032001000b0005b
:101860000180b0000188a30002003200c108de0040
:101870000402e800f107b200f30f20000320e100aa
:1018800003003d004722dd0081007200290037007f
:1018900001f827000000eb00260037006000b800c8
:1018a00000000600680212007f20e1000200340000
:1018b0006000b8001f0037006011b8007020e10020
:1018c0000400350080017800010078008000eb0002
:1018d000700252000400e00009003400f00312001e
:1018e0000719dd008419de000703dd008681710021
:1018f0000400de00070bdd00060070008408de0037
:10190000f7ff270083836300870371000600280028
:1019100003036300070032000700e00003003a0001
:101920006101600002817300020032001000b0000b
:101930000180b0000500a6000000060001f0a00034
:1019400000000600881f7800030478000300e00010
:1019500007003d0060001000e080180060011900e1
:10196000e081190002003b0001f02d000300370068
:101970000400070008f0a70001f0a0004f04780061
:1019800000000600889fbe008a9fbe000082700093
:101990000402710004827100260032000004be00bf
:1019a0000200be006011b8006b0920009502200003
:1019b0000182cf000a0039000541b1000082cf004a
:1019c000070039000541b1000982cf000400390049
:1019d0000541b1000882cf00010039000541b10086
:1019e00005425200120032000a003b008281710061
:1019f000610164008100d1000080d3008984d3009c
:101a00000884d3008b05e8000442e800f7ff3a00a1
:101a1000070037000804440089844c000000480097
:101a2000818048008b05e9000442e900f9ff3a0093
:101a3000030007004f05be004f04be000000060073
:101a400081002000618055000b003d000b0020004c
:101a500061fe2f000100e1001d0034008281710051
:101a6000610164008904d1000884d3000000e8000b
:101a7000faff3a007100200061006400030070006a
:101a8000020060000900320061044400e0844c0060
:101a90000988a500050032008b05e8006808e10010
:101aa00002003a008904d1000884d300f20f20001c
:101ab0000258e10005003d00c75ddd00f907b200f6
:101ac0008980750008007800000006000bf82700e8
:101ad0008b007800000005002700200001f0a7001f
:101ae00017002000470bde00f60fb20004003200a2
:101af0000643e8000a0032004702b3000000060077
:101b000001037800f607b2000603700002003a00f5
:101b10000703b300000006008702b30000000600c0
:101b200001037800f607b2000603700002003200dd
:101b30000770a000000006000760a000000006007b
:101b40008b20a9008be0a900e7026000c42add0019
:101b5000f4f82f00060680000602620005027200fb
:101b600004068800800278000507b200c82add005c
:101b7000f4ff2800160680000602620005027200cb
:101b800014068800e8026000c32ade00e1826200d9
:101b9000c92add00f4df2f00d604800006026200af
:101ba00005027200d40488000008b2004700de007d
:101bb000610060004f00dd00f4ff2700d5048000c5
:101bc0000502620000027200d404880000000600d2
:101bd000200e8800310e8800430e8800540e8800c5
:101be000020e88000000060061026100e2ff2f0083
:101bf000550e80000501610004017100520e88003d
:101c00000000e90000004000641d2000013278005f
:101c100000000600600e8800000006000021ef00b2
:101c200011088800200888000000060004118000c8
:101c300066026200e60f520002003a003011800096
:101c40000000060030118000f00fb2000000060016
:101c50008411800066026200e60f520002003a0022
:101c6000b011800000000600b0118000f00fb2003b
:041c7000000006006a
:020000040000fa
:101c7400a025000026000000010200000408000066
:101c8400102000004080000001000000020000005d
:101c94000400000008000000100000002000000004
:101ca400400000008000000000010000000200006d
:101cb40000040000000800000010000000200000e4
:081cc400004000000080000058
:020000040000fa
:101ccc00404600004e00000001000000526f000072
:101cdc00626f0000436f00006e740000726f0000b2
:101cec006c6c0000657200002054000065730000ed
:101cfc0074200000563100002e300000204d0000f2
:101d0c0061750000726f0000205300006f6c0000c2
:101d1c00696700006f200000323000003131000094
:101d2c0000000000000000000000000000000000a7
:101d3c000000000000000000000000000000000097
:101d4c000000000000000000000000000000000087
:101d5c000000000000000000000000000000000077
:101d6c000000000000000000020800000624000033
:101d7c0000000000004600004000000000000000d1
:101d8c0000470000800000000000000080470000b9
:101d9c0080000000000000008e46000002000000e1
:101dac00000000000008000002000000000000001d
:041dbc000000000023
:020000040000fa
:101dc0000000fa000080fa00000006000a00fa0095
:101dd000000f7800214798003247980023079800a9
:101de00034079800450798001e027800ae02900064
:101df000350298001e027800be029000450298004d
:101e00001e027800ce029000550298001e02780053
:101e1000ae429000154298009e0278000042eb000e
:101e2000a44298001e027800be42900045429800ed
:101e30009e0278000042eb00d44298009e02780097
:101e400014c0b300844a78000080fa000000060045
:101e50000200fa00000f78000080fa00000006007f
:101e60000200fa00000f78000080fa00000006006f
:101e70000200fa00000f78001e02780014029000a1
:101e8000e00f52000b0032001e02780014027800ae
:101e900061026200e00f520006003a001e02780064
:101ea000140290008402e9001e02780015029800d6
:101eb000080037001e027800a40290001e0278007d
:101ec000150298009e027800150278000400a00018
:101ed000840a78000080fa00000006000200fa0080
:101ee000000f78001e027800a40290001e02780005
:101ef000150298000080fa00000006000000fa00b9
:101f00000449810062026200e00f52001a003200b0
:101f1000e4488100e00f52000a003200e4488100ea
:101f20000402e900e4488900658b20000042eb00d0
:101f3000844a7800a58f20000042eb00844a780094
:101f40000f003700658b200014c0b300844a78006e
:101f5000a58f200014c0b300844a78006022b80026
:101f600084418800954188006022b800a44388001d
:101f7000b543880002003700a4002000e44889002f
:101f80000080fa00000006001080ba000000060081
:101f90001000ba0000000600801f78000500fc0059
:101fa00050052000303b8800a00a2000303b88000c
:101fb00061e7a800000000000000000061e7af003a
:101fc000feff37004f007800000006008088bb004d
:101fd0000000060080c8bb00000006008008bb00af
:0c1fe000000006008048bb000000060066
:020000040000fa
:105000000200fa00000f78001e027800550d200003
:10501000850f520042013200550d2000850f5200cd
:105020006f003e00f20f520017013200f20f5200e3
:105030002c003e00e80f520007013200e80f52003a
:1050400012003e00e30f5200f1003200e30f520065
:1050500005003e00e10f5200e9003200e10f52006e
:10506000e9003e00e4003700e50f5200ec0032009a
:10507000e50f5200e8003900e60f5200ea00320066
:10508000e70f5200ea00320071013700ed0f5200c5
:10509000f3003200ed0f520009003e00ea0f52000b
:1050a000e7003200ea0f5200e3003900eb0f520034
:1050b000e5003200ec0f5200e500320064013700d9
:1050c000ef0f5200ea003200ef0f5200e600390005
:1050d000f00f5200e8003200f10f5200e8003200f9
:1050e0005b013700b50c2000850f5200f80032003c
:1050f000b50c2000850f520019003e00f60f52003b
:10510000e5003200f60f520005003e00f40f520099
:10511000e5003200f40f5200e5003e00dc003700ed
:10512000850c2000850f5200e3003200850c200022
:10513000850f520003003e00f70f5200d8003200e6
:1051400043013700950c2000850f5200dc0032002f
:10515000a50c2000850f5200db0032003c01370017
:10516000050d2000850f5200e3003200050d2000e0
:10517000850f52000d003e00d50c2000850f520017
:10518000d7003200d50c2000850f5200d200390024
:10519000e50c2000850f5200d3003200f50c2000f2
:1051a000850f5200d200320029013700250d200062
:1051b000850f5200d4003200250d2000850f5200cb
:1051c000cf003900350d2000850f5200d00032008d
:1051d000450d2000850f5200cf0032001c01370022
:1051e00015a62e00850f5200f300320015a62e00e2
:1051f000850f520040003e00b50f2000850f520081
:10520000d9003200b50f2000850f52001a003e0071
:10521000950d2000850f5200c9003200950d200029
:10522000850f520007003e00750d2000850f5200cb
:10523000bf003200750d2000850f5200be003e00f9
:10524000b9003700b50d2000850f5200c0003200b4
:10525000b50d2000850f5200bb003900c50d2000a0
:10526000850f5200bc003200a50f2000850f5200b0
:10527000bb003200f600370005102000850f5200f9
:10528000c300320005102000850f52000d003e00c3
:10529000d50f2000850f5200b7003200d50f200037
:1052a000850f5200b2003900e50f2000850f520033
:1052b000b3003200f50f2000850f5200b20032001b
:1052c000e300370025102000850f5200b4003200a3
:1052d00025102000850f5200af0039003510200046
:1052e000850f5200b000320005a62e00850f520037
:1052f000af003200d6003700a5a62e00850f520061
:10530000bf003200a5a62e00850f52001a003e00f5
:1053100055a62e00850f5200af00320055a62e0074
:10532000850f520007003e0035a62e00850f520063
:10533000a500320035a62e00850f5200a4003e00c5
:105340009f00370075a62e00850f5200a600320080
:1053500075a62e00850f5200a100390085a62e00eb
:10536000850f5200a200320095a62e00850f520034
:10537000a1003200b6003700f5a62e00850f5200be
:10538000a9003200f5a62e00850f52000d003e0048
:10539000c5a62e00850f52009d003200c5a62e0026
:1053a000850f520098003900d5a62e00850f5200b7
:1053b00099003200e5a62e00850f520098003200b9
:1053c000a300370015a72e00850f52009a00320067
:1053d00015a72e00850f52009500390025a72e0035
:1053e000850f52009600320035a72e00850f52001f
:1053f0009500320096003700140020009500370019
:1054000014002000930037006446810091003700ab
:10541000a40020008f003700044981008d00370070
:10542000844681008b0037002449810089003700c1
:1054300034498100870037005449810085003700d6
:10544000644981008300370074498100810037007e
:10545000844981007f003700444981007d00370086
:10546000744681007b003700944981007900370041
:10547000a449810077003700b449810075003700e6
:10548000c449810073003700d4498100710037009e
:10549000e44981006f003700144a81006d00370035
:1054a000244a81006b003700f4498100690037000d
:1054b000044a810067003700c44681006500370058
:1054c000d446810063003700e44681006100370064
:1054d000f44681005f003700044781005d0037001b
:1054e000144781005b0037002447810059003700d2
:1054f000344781005700370044478100550037008a
:105500005447810053003700644781005100370041
:10551000744781004f003700844781004d003700f9
:10552000944781004b003700a447810049003700b1
:10553000b447810047003700c44781004500370069
:10554000d447810043003700e44781004100370021
:10555000744881003f003700844881003d003700d7
:10556000f44781003b0037000448810039003700d0
:105570001448810037003700244881003500370087
:10558000344881003300370044488100310037003f
:10559000544881002f003700644881002d003700f7
:1055a000344a81002b003700444a8100290037002b
:1055b000544a810027003700644a810025003700e3
:1055c000744a810023003700844a8100210037009b
:1055d000944a81001f003700a44a81001d00370053
:1055e000b44a81001b003700c44a8100190037000b
:1055f000d44a810017003700e44a810015003700c3
:10560000f44a810013003700044b81001100370079
:10561000144b81000f003700244b81000d00370030
:10562000344b81000b003700444b810009003700e8
:10563000544b810007003700644b810005003700a0
:10564000744b810003003700844b81000100370058
:105650001e027800040078000080fa0000000600b6
:105660000400fa00000f7800110798001e0278006d
:10567000950d2000850f5200cf013200950d2000be
:10568000850f52005b003e00950c2000850f5200f4
:1056900019013200950c2000850f520027003e00b2
:1056a000ef0f5200f4003200ef0f520012003e00e4
:1056b000e60f5200da003200e60f520007003e000b
:1056c000e40f5200c8003200e40f5200c9003e004f
:1056d000e20f5200b2003200b7023700ed0f520065
:1056e000d5003200ed0f5200de003e00e70f520001
:1056f000ce003200b0023700f30f5200ea00320051
:10570000f30f520005003e00f10f5200e00032009e
:10571000f10f5200e1003e00da003700f50f5200b1
:10572000e7003200f50f5200e2003900850c20003e
:10573000850f5200e50032009f023700150d200052
:10574000850f520044013200150d2000850f5200d4
:1057500014003e00d50c2000850f520012013200cb
:10576000d50c2000850f520007003e00b50c20002c
:10577000850f5200f6003200b50c2000850f520054
:10578000fe003e00e7003700f50c2000850f5200b8
:105790001b013200f50c2000850f520023013e0052
:1057a0000c013700550d2000850f520056013200c4
:1057b000550d2000850f520007003e00350d2000da
:1057c000850f52003a013200350d2000850f52003e
:1057d00042013e002b013700750d2000850f52005d
:1057e0005f013200750d2000850f520067013e00f9
:1057f0005001370045a62e00850f52001a023200d4
:1058000045a62e00850f520034003e00e50f200013
:10581000850f5200d0013200e50f2000850f5200a5
:1058200017003e00a50f2000850f52008e013200a8
:10583000a50f2000850f52000a003e00b50d200084
:10584000850f520072013200b50d2000850f520005
:1058500064013900c50d2000850f52007701320028
:1058600055023700c50f2000850f52009c01320001
:10587000c50f2000850f5200a8013e0089013700a6
:1058800005a62e00850f5200ef01320005a62e005e
:10589000850f52000a003e0005102000850f5200bf
:1058a000cb01320005102000850f5200b9013900ec
:1058b00015102000850f5200d40132003e0237003f
:1058c00025a62e00850f5200e301320025a62e00ea
:1058d000850f5200e2013e00dd013700c5a62e0013
:1058e000850f5200f0013200c5a62e00850f520030
:1058f00014003e0085a62e00850f5200e201320002
:1059000085a62e00850f520007003e0065a62e00da
:10591000850f5200d801320065a62e00850f520077
:10592000d7013e00d2013700a5a62e00850f5200f8
:10593000d9013200a5a62e00850f5200d8013e00e5
:10594000d301370005a72e00850f5200de0132007b
:1059500005a72e00850f520007003e00e5a62e0089
:10596000850f5200d4013200e5a62e00850f5200ab
:10597000d3013e00ce01370025a72e00850f52002f
:10598000d501320025a72e00850f5200d001390025
:1059900035a72e00850f5200d101320006023700d4
:1059a0001e029000e00f5200d00132009e029000d3
:1059b000e40f2000848f5200ce013e001e029000b2
:1059c000644689000449810064026200e00f5200cd
:1059d000ca013200644681004101200004007800c1
:1059e000590b0700f40137001e029000044989009a
:1059f000f10137001e0290008446890004498100ad
:105a000064026200e00f5200be0132008446810051
:105a100061012000040078004b0b0700e60137000d
:105a20001e02900024498900e30137001e02900005
:105a300034498900e00137001e0290007446890055
:105a40000449810064026200e00f5200af0132009d
:105a50007446810051012000040078003a0b0700d1
:105a6000d50137001e009000ed15070000027800f8
:105a700094498900d00137001e029000a449890092
:105a8000cd0137001e029000b4498900ca013700d9
:105a90001e029000c4498900c70137001e02900011
:105aa000d4498900c40137001e029000e4498900ee
:105ab000c10137001e029000f4498900be01370081
:105ac0001e029000044a8900bb0137001e029000ac
:105ad000c44689000449810064026200e00f52005c
:105ae0008c013200c4468100a1012000040078002e
:105af000150b0700b00137001e029000d446890044
:105b00000449810064026200e00f52008301320008
:105b1000d4468100b1012000040078000a0b070080
:105b2000a50137001e029000e44689000449810067
:105b300064026200e00f52007a013200e446810004
:105b4000c101200004007800ff0a07009a01370015
:105b50001e029000f446890004498100640262003c
:105b6000e00f520071013200f4468100d1012000a3
:105b700004007800f40a07008f0137001e0290002d
:105b8000044789000449810064026200e00f52006a
:105b90006801320004478100e10120000400780020
:105ba000e90a0700840137001e02900014478900ab
:105bb0000449810064026200e00f52005f0132007c
:105bc00014478100f101200004007800de0a07007c
:105bd000790137001e0290002447890004498100a2
:105be00064026200e00f5200560132002447810037
:105bf0000102200004007800d30a07006e0137007c
:105c00001e0290003447890004498100640262004a
:105c1000e00f52004d013200344781001102200094
:105c200004007800c80a0700630137001e029000d4
:105c3000444789000449810064026200e00f520079
:105c40004401320044478100210220000400780012
:105c5000bd0a0700580137001e0290005447890012
:105c60000449810064026200e00f52003b013200ef
:105c7000544781003102200004007800b20a070076
:105c80004d0137001e0290006447890004498100dd
:105c900064026200e00f520032013200644781006a
:105ca0004102200004007800a70a070042013700e3
:105cb0001e0290007447890004498100640262005a
:105cc000e00f520029013200744781005102200088
:105cd000040078009c0a0700370137001e0290007c
:105ce000844789000449810064026200e00f520089
:105cf0002001320084478100610220000400780006
:105d0000910a07002c0137001e0290009447890079
:105d10000449810064026200e00f52001701320062
:105d2000944781007102200004007800860a070071
:105d3000210137001e029000a44789000449810018
:105d400064026200e00f52000e013200a44781009d
:105d500081022000040078007b0a0700160137004a
:105d60001e029000b4478900044981006402620069
:105d7000e00f520005013200b4478100910220007b
:105d800004007800700a07000b0137001e02900023
:105d9000c44789000449810064026200e00f520098
:105da000fc003200c4478100a102200004007800fa
:105db000650a0700000137001e029000d4478900e1
:105dc0000449810064026200e00f5200f3003200d7
:105dd000d4478100b1022000040078005a0a07006d
:105de000f50037001e029000e44789000449810055
:105df00064026200e00f5200ea003200e4478100d2
:105e0000c1022000040078004f0a0700ea003700b2
:105e10001e029000744889000449810064026200f7
:105e2000e00f5200e100320074488100510320006d
:105e300004007800440a0700df0037001e029000cb
:105e4000844889000449810064026200e00f520026
:105e5000d8003200844881006103200004007800eb
:105e6000390a0700d40037001e029000f447890069
:105e70000449810064026200e00f52000400320015
:105e8000f4478100d1022000040078002e0a0700a8
:105e9000f447810005002000c4408800d5408800f8
:105ea000c50037001e0290000448890004498100a3
:105eb00064026200e00f52000400320004488100d6
:105ec000e1022000040078001f0a07000448810056
:105ed00005002000e4408800f5408800b600370047
:105ee0001e02900014488900044981006402620087
:105ef000e00f52000400320014488100f10220003b
:105f000004007800100a07001448810005002000f2
:105f10000441880015418800a70037001e02900048
:105f2000244889000449810064026200e00f5200a5
:105f3000040032002448810001032000040078009e
:105f4000010a07002448810005002000e44288007f
:105f5000f5428800980037001e02900034488900fe
:105f60000449810064026200e00f52000400320024
:105f7000344881001103200004007800f209070072
:105f80003448810005002000044388001543880040
:105f9000890037001e0290004448890004498100ae
:105fa00064026200e00f52000400320044488100a5
:105fb0002103200004007800e30907004448810021
:105fc0000500200024438800354388007a0037000c
:105fd0001e02900054488900044981006402620056
:105fe000e00f5200040032005448810031032000c9
:105ff00004007800d40907005448810005002000ff
:10600000c4418800d54188006b0037001e02900013
:10601000644889000449810064026200e00f520074
:10602000040032006448810041032000040078002d
:10603000c50907006448810005002000e44388008a
:10604000f54388005c0037001e029000544a890026
:106050001e029000644a89001e029000744a890062
:106060001e029000844a89001e029000944a890012
:106070001e029000a44a89001e029000b44a8900c2
:106080001e029000c44a89001e029000d44a890072
:106090001e029000e44a89001e029000f44a890022
:1060a0001e029000044b89001e029000144b8900d0
:1060b0001e029000244b89001e029000344b890080
:1060c0001e029000444b89001e029000544b890030
:1060d0001e029000644b89001e029000744b8900e0
:1060e0001e029000844b890033003700000000003e
:1060f00031003700000000002f00370000000000d2
:106100002d003700000000002b00370000000000c9
:1061100029003700000000002700370000000000c1
:1061200025003700000000002300370000000000b9
:1061300021003700000000001f00370000000000b1
:106140001d003700000000001b00370000000000a9
:1061500019003700000000001700370000000000a1
:106160001500370000000000130037000000000099
:1061700011003700000000000f0037000000000091
:106180000d003700000000000b0037000000000089
:106190000900370000000000070037000000000081
:1061a0000500370000000000030037000000000079
:1061b000010037000000000014c0b3000440780064
:1061c0000080fa00000006000200fa00000f7800cc
:1061d0001e0278004422de00840242000492220063
:1061e00004824200940278001e0378006f0263006c
:1061f0000403420064e4280004024300140278000f
:106200000482620004f0a7000402ea000402ea002b
:106210004f22de0004427800044078000080fa003b
:10622000000006000400fa00000f780021479800e3
:106230002e429000e04f5200120032001e02780001
:106240004422de000403420005922200850243003e
:10625000150378009e037800ef8263008583420077
:1062600065e428008582430095027800850273006a
:10627000040342000492220004024300050a78004d
:10628000120037001e0278004422de0004034200a0
:106290000592220085024300150378009e037800d2
:1062a000ef8263008583420065e428008582430015
:1062b000950278008582ea008502630004034200ab
:1062c0000492220004024300050a780014c0b300bf
:1062d000044078000080fa00000006000600fa0082
:1062e000404798004e4290000482fb008402420026
:1062f000449722000482420014027800e20f520008
:1063000094003200e30f5200a9003200e10f520066
:10631000b0003a004e4290000482fb0085972200b4
:1063200065437a00164798001e429000e74f5200de
:10633000a30036004e4290000482fb004722dd009d
:106340000402e80085a8220065427a000482fb006e
:106350006123b9000082eb008082eb00060242005c
:1063600087824a00f600200007002000860f5200b6
:10637000878f5a001c003e00046001000f003700a8
:106380000e0037000d0037000c0037000b003700ff
:106390000a003700140037001300370012003700de
:1063a00011003700100037000f0037000e003700d3
:1063b0000d003700040037000300370084c0b3002d
:1063c000044f78000b0037004e4290000482fb001f
:1063d0004722dd006602420085a8220065427a005d
:1063e000694f42000300370084c0b300044f7800b7
:1063f000000000001e4290009e4f520072003a00c2
:106400001e42900004c2e90086a82200ce429000fd
:106410008582fb00c72add008502430084407800a6
:10642000050078004d04070000027800140798006a
:106430004e4290008482fb001e4290000482fb00ca
:106440000482e900c72add000482420085a82200f8
:10645000e5427a001e0290000442780084cf520088
:1064600039003a004e4290008482fb001e429000a8
:106470000482fb000402e900c72add000482420016
:1064800085a82200e5427a001e0290004822de0024
:106490000442780084cf52002b003a004e42900014
:1064a0000482fb004722dd0085a8220065427a00b5
:1064b0008482fb0064468100848f52000e0032000b
:1064c0004e4290000482fb004722dd0085a8220096
:1064d00065427a00e14f4200070032004e429000d0
:1064e0000482fb004722dd0085a8220065427a0075
:1064f000e04f520010003a004e4290008482fb00b0
:1065000046982200a4c0b30004f37a0074468100c8
:10651000e4488900c522a8004e4290000482fb0096
:106520008402420044972200048242002500200099
:10653000050a7800020037004e4090003a04070038
:1065400000000000230037004e4090003604070092
:10655000200037004e4290000482fb004598220044
:1065600065427a00e04f520019003a004e42900016
:106570000482fb004722dd000402e80085a8220017
:1065800065427a00ce409000044078001300070076
:106590004e4290000482fb00840242004497220095
:1065a0000482420015002000050a78000900370027
:1065b0004e40900030040700000000000500370046
:1065c0000000000003003700000000000100370059
:1065d000000000000080fa00000006000200fa003f
:1065e000004f7800114798009e4278000582fb001a
:1065f0006123b9000082eb008082eb0006024200ba
:1066000087824a00f600200007002000860f520013
:10661000878f5a0023003e00046001000f003700fe
:106620000e003700100037000f0037001100370050
:10663000130037001b0037001a003700190037001d
:106640001800370017003700160037001500370014
:10665000140037000d0037000f0037001e40900077
:1066600016000700130037001e409000e9000700e5
:10667000100037001e409000990107000d00370000
:106680001e409000e50107000a0037001e40900000
:1066900029020700070037001e409000be020700d5
:1066a000040037009e40900010c0b300550307005f
:1066b000000000000080fa00000006000a00fa0056
:1066c000004f98000e4a90000482fb004722dd0034
:1066d0000482e80085a8220065427a000482fb005b
:1066e0004822dd00840278000e4a90000482fb00fc
:1066f0004722dd006302420086a8220066427a003b
:106700000482fb0004824200140798000e4a9000a5
:106710000482fb004722dd006402420085a82200bb
:1067200065427a000482fb004822dd008402780082
:106730000e4a90000482fb004722dd006502420001
:1067400086a8220066427a000482fb00048242008e
:10675000240798000e4a90008482fb000e4a9000a5
:106760000482fb004722dd0086a8220066427a00f0
:1067700086982200c72add0085024300844a7800fb
:106780000e4a90008482fb000e4a90000482fb00b7
:106790004722dd000402e80086a8220066427a0053
:1067a00086982200c72add00850243008502e800a2
:1067b000844a78000e4a90008482fb002e029000ea
:1067c0000402e9004322de00044278000442e800ab
:1067d00086982200c72add00850243008582e800f2
:1067e000844a78000002eb00040f78000b003700a9
:1067f0000e4a90000483fb009e02780063824200f0
:10680000859822004733dd00040243008482420061
:106810000042eb00844a78001e0fe8000e4a900008
:106820000482fb004722dd000482e80085982200f4
:1068300065427a000482fb009e0f5200ecff3e008e
:106840000002eb00040f78001f0037001e029000ca
:106850001e024200040078005bfe07000042780040
:10686000e04f5200170032000e4a90000480fb00f7
:106870001e027800c322de00e38342000e4a90002d
:106880000483fb0063824200c732dd0004824200c1
:106890008598220065427a00844278001e037800c1
:1068a00067026300e6e3280066427a0004c27200d1
:1068b00086982200c702dd008782420085024300dd
:1068c000844a78001e0fe8002e0290009e02780095
:1068d000848f5200ddff39000e4a90000482fb00d5
:1068e0004722dd000482e8008598220065427a0094
:1068f00063424200869822008e4a90008582fb0007
:10690000c72add0085024300844078000500780036
:106910001203070000027800340798000e4a900026
:106920008483fb000e4a90000482fb004722dd00b6
:106930000482e8008598220065427a000482fb0008
:10694000e30242003e029000044278008698220052
:10695000c73bdd008582430085024300844a7800fe
:106960000e4a90008483fb000e4a90000482fb00d4
:106970004722dd000482e8008598220065427a0003
:106980000482fb00e40242003e0290004822de0046
:106990000442780086982200c73bdd0085824300d0
:1069a00085024300844a78000e4890001e030700c9
:1069b0000e4a90000482fb004722dd0085982200e9
:1069c00065427a00e04f5200100032000e4a9000fb
:1069d0000482fb004722dd000482e8008598220043
:1069e00065427a0065424200869822008e4a9000f5
:1069f0008582fb00c72add00850243000e49900016
:106a00008440780005007800ee1307000080fa004b
:106a1000000006000c00fa00204f98002e4a90005b
:106a20000482fb004722dd000482e80085a82200e2
:106a300065427a000482fb00c822dd002e4a9000e5
:106a40000482fb004722dd006302420086a8220088
:106a500066427a000482fb00048242001407980018
:106a60002e4a90000482fb004722dd0064024200af
:106a700085a8220065427a000482fb00c822dd005e
:106a80002e4a90000482fb004722dd00650242008e
:106a900086a8220066427a000482fb00048242003b
:106aa000240798002e029000fc0f520004003600cc
:106ab000ae48900010c0b3005202070086003700b5
:106ac0002e4a90008482fb002e4a90000482fb0034
:106ad0004722dd0086a8220066427a0086982200be
:106ae000c72add0085024300844a78002e4a9000c0
:106af0008482fb002e4a90000482fb004722dd00c6
:106b00000402e80086a8220066427a0086982200e5
:106b1000c72add00850243008502e800844a780028
:106b20002e4a90008482fb002e02900004427800de
:106b30000442420086982200c72add0085024300f5
:106b40008582e800844a78000002eb00040f780098
:106b5000200037001e0290001e0242000400780050
:106b600027f9070000027800340798002e4a9000a9
:106b70008483fb001e02780004024200e30242000c
:106b80003e0290004822de000442780086982200ef
:106b9000c73bdd008582430085024300844a7800bc
:106ba0002e4a90008483fb001e82e800040242000b
:106bb000840278003e029000044278008698220009
:106bc000c73bdd008582430085024300844a78008c
:106bd0001e0fe8002e0290009e027800848f520063
:106be000dcff39002e02900004427800044242008b
:106bf0006342420086982200ae4a90008582fb00e4
:106c0000c72add0085024300844078000500780033
:106c10005202070000027800440798002e4a9000b4
:106c20008483fb001e02780004024200e30242005b
:106c30004e0290000442780086982200c73bdd0097
:106c40008582430085024300844a78002e4a9000e2
:106c50008483fb001e82e800040242008402780064
:106c60004e0290004822de000442780086982200fe
:106c7000c73bdd008582430085024300844a7800db
:106c80002e489000680207002e4a90000482fb0004
:106c90004722dd008598220065427a00e04f5200cd
:106ca0000d0032002e02900004427800044242009f
:106cb0006542420086982200ae4a90008582fb0021
:106cc000c72add00850243002e49900084407800e9
:106cd000050078003b1307000080fa000000060062
:106ce0000600fa00404798004e4290000482fb00e4
:106cf0004722dd000482e80085a8220065427a0070
:106d00000482fb004822dd00840278004e4290009d
:106d10000482fb004722dd006302420086a82200b5
:106d200066427a000482fb00048f42004e429000cb
:106d30000482fb004722dd006402420085a8220095
:106d400065427a000482fb004822dd00840278005c
:106d50004e4290000482fb004722dd0065024200a3
:106d600086a8220066427a000482fb0084824200e8
:106d700004f02f0004826a0004f0a7000402ea0075
:106d80000402e9004f22de0024479800ae40900044
:106d90001e00780023fd0700004278003447980069
:106da0003e4290000482fb00e10f520013003a00c3
:106db0004e4090001c0207004e4290000482fb00ef
:106dc0004722dd0085a8220065427a00e04f52008c
:106dd0000f00320085a822004e4290000482fb0082
:106de0004722dd00048242004e41900081c0b30082
:106df00004007800f312070006003700ce40900030
:106e00003e4090007f0107000000000001003700b5
:106e1000000000000080fa00000006000800fa00f0
:106e2000604798006e4290000482fb004722dd001c
:106e30000482e80085a8220065427a000482fb00f3
:106e4000c822dd006e4290000482fb004722dd0074
:106e50006302420086a8220066427a000482fb0098
:106e6000048f42006e4290000482fb004722dd0046
:106e70006402420085a8220065427a000482fb0079
:106e8000c822dd006e4290000482fb004722dd0034
:106e90006502420086a8220066427a000482fb0056
:106ea00004824200140798009e0090001e007800a3
:106eb000ebf9070000427800444798004e429000ea
:106ec0000482fb00e10f520013003a006e40900074
:106ed000d50107006e4290000482fb004722dd00ce
:106ee00085a8220065427a00e04f52000f00320070
:106ef00085a822006e4290000482fb004722dd003c
:106f0000048242006e41900081c0b300040078000a
:106f1000ac12070006003700ee4090004e40900093
:106f200038010700000000000100370000000000e9
:106f30000080fa00000006000c00fa00204f9800c4
:106f40002e4a90000482fb004722dd000482e80004
:106f500085a8220065427a000482fb004822dd00f9
:106f6000840278002e4a90000482fb004722dd0054
:106f70006302420086a8220066427a000482fb0077
:106f800004824200140798002e4a90000482fb00fd
:106f90004722dd006402420085a8220065427a0093
:106fa0000482fb004822dd00840278002e4a900013
:106fb0000482fb004722dd006502420086a8220011
:106fc00066427a000482fb00048242002407980093
:106fd0000002eb00040f7800260037002e4a9000d4
:106fe0008482fb001e0278004322de00670242001a
:106ff000c72add000482420085a8220065427a008b
:107000008482fb001e03780067026300e6e3280029
:1070100066427a000402fb000482620004f0a700ca
:107020000402ea000402ea004f22de0064479800ee
:107030001e0290001e024200ee4090000400780004
:1070400078fc070000427800744798007e42900068
:107050000482fb00e10f520002003a001e0fe8001c
:1070600004003700ae4890007e409000e500070025
:10707000470037002e0290009e027800848f520055
:10708000d6ff39000002eb00040f78000e00370035
:107090002e4a90008482fb002e4a90000482fb005e
:1070a0004722dd001e02420086a8220066427a00c6
:1070b00086982200c72add009e8242008502430096
:1070c000844a78001e0fe8001e027800e50f520087
:1070d000efff360085a822002e4a90000482fb00b4
:1070e0004722dd000482420061c0b3000400780042
:1070f0001a01070000027800440798002e4a900009
:107100008482fb004e0290000442780086982200a0
:10711000c72add0085024300e6824200844a7800e7
:107120002e4a90008482fb004e0290004822de002e
:107130000442780086982200c72add0085024300b9
:10714000e7824200844a78002e489000360107000a
:107150002e4a90000482fb004722dd008598220021
:1071600065427a00e04f5200090032008598220003
:107170002e4a90000482fb004722dd000482420078
:107180002e49900081c0b300040078000d12070062
:107190000080fa00000006000e00fa00404f980040
:1071a0004e4a90000482fb004722dd000482e80082
:1071b00085a8220065427a000482fb004822dd0097
:1071c000840278004e4a90000482fb004722dd00d2
:1071d0006302420086a8220066427a000482fb0015
:1071e00004824200140798004e4a90000482fb007b
:1071f0004722dd006402420085a8220065427a0031
:107200000482fb004822dd00840278004e4a900090
:107210000482fb004722dd006502420086a82200ae
:1072200066427a000482fb00048242002407980030
:107230000002eb00040f7800290037004e4a90004e
:107240008482fb001e0278000402420067024200b2
:10725000c72add000482420085a8220065427a0028
:107260000482fb004822dd00840278004e4a900030
:107270000483fb009e037800648243000402420002
:107280004733dd000402430086a8220066427a00ec
:107290000482fb0004824200340798001e02900022
:1072a0001e024200be00900004007800ecf80700c7
:1072b00000427800044f98000e4a90000482fb00c0
:1072c000e10f520002003a001e0fe80004003700f0
:1072d000ce4890000e4890004a0007004700370053
:1072e0002e0290009e027800848f5200d3ff390056
:1072f0000002eb00040f78000e0037004e4a9000a9
:107300008482fb004e4a90000482fb004722dd008d
:107310001e02420086a8220066427a008698220059
:10732000c72add009e82420085024300844a78001d
:107330001e0fe8001e027800e50f5200efff360036
:10734000859822004e4a90000482fb004722dd000f
:107350000482420061c0b300040078007f0007008f
:1073600000027800540798004e4a90008482fb0087
:107370005e0290000442780086982200c72add0051
:1073800085024300e6824200844a78004e4a90001b
:107390008482fb005e0290004822de0004427800f6
:1073a00086982200c72add0085024300e78242005a
:1073b000844a78004e4890009b0007004e4a900097
:1073c0000482fb004722dd008598220065427a0096
:1073d000e04f520009003200859822004e4a90008a
:1073e0000482fb004722dd00048242004e499000e7
:1073f00081c0b30004007800721107000080fa0019
:10740000000006000400fa00204798003147980069
:107410003e4290008482fb003e4290000482fb00ca
:107420004722dd0086a8220066427a008698220064
:10743000c72add0085024300844a78003e4290005e
:107440008483fb003e4290000482fb004722dd0063
:107450000402e80085a82200e5427a0004c8b300cf
:1074600004c2720086982200c73add0085024300fc
:107470008502e800844a78003e4290000482fb00c6
:10748000859822004722dd00048242000482e80041
:10749000ae429000054a7800859822003e42900056
:1074a0000482fb004722dd000482420031c0b300a9
:1074b000040078002900070000027800040f78001b
:1074c0003e4290008482fb001e0278000442780055
:1074d00086982200c72add0085024300e38242002d
:1074e000844a78003e4290008482fb001e027800ad
:1074f0004822de000442780086982200c72add0078
:1075000085024300e4824200844a78003e409000b5
:10751000450007003e4290000482fb004722dd0048
:107520008598220065427a00e04f5200090032003f
:10753000859822003e4290000482fb004722dd0035
:10754000048242003e41900051c0b3000400780024
:107550001c1107000080fa00000006000800fa0075
:1075600020079800614798000082eb00040f780024
:107570000042eb0024479800210037002e029000c3
:10758000144278000482fb001e0f6a000042eb00e8
:1075900034479800110037001e0278006102620033
:1075a00004427800e04f5200060032001e027800cc
:1075b0000402d100040f780014002a001e0f6a0094
:1075c000030037001e0278000402d100040f780087
:1075d0003e4290000442e800344798003e4290004a
:1075e000e74f5200ecff34002e0290000402e80046
:1075f000240798002e4290000442e8002447980097
:107600002e4290008402fb006e4290000482fb0038
:10761000848f5200d9ff35001e02780004007800e4
:107620000080fa00000006000200fa00004f780017
:107630009e4278000582fb0086a822009e437800c7
:107640008782fb00c72add00850243000403420055
:10765000a497220004024300050a78001e42780025
:107660008482fb00869722000042eb0004f37a003c
:107670000080fa00000006000200fa00004f7800c7
:107680001e427800e04f520002003a002a10070024
:1076900001003700701007001e407800e2ff07006d
:1076a0001e4278008482fb002698220024c0b3008a
:1076b00004f37a009e4278000582fb0084024200b7
:1076c000449722000482420015002000050a780039
:1076d0000080fa00000006000600fa001402800094
:1076e0004522de00674262000482fb00040f78003e
:1076f0009402800014079800ff3ffc0014028000f1
:107700000450a0000460a0000470a00014028800cf
:107710001e02900094028800000088001eea070004
:107720009402800024079800ff3ffc001e027800ae
:1077300004427800674262000482fb006702620034
:107740004522dd0016028000f5f12f00850263005e
:1077500004827200140288002e02900094028800b5
:10776000000088000080fa00000006000c00fa000b
:10777000004f9800114f9800224f980024032000da
:10778000144278000482fb001407980006002100d0
:10779000070020000e4a90008482fb0004c02000f5
:1077a00004aab90004027800050020000603420084
:1077b00087834a001e4a90000482fb004a22dd00b3
:1077c000050020000602420087824a00402ade00af
:1077d00005002000044278000440780032e0b70041
:1077e0000400210005002000040378001e4a9000d8
:1077f0008483fb000e4a90000482fb006322b900e0
:1078000004027800048243004a22dd00040243009f
:10781000240798002e02900004007800dae907009f
:1078200000027800644798002e4a90000482fb0012
:10783000f30f52000a003200f40f52000e00320023
:10784000f20f520012003a006e4290000482fb00d8
:107850006402620042a2de00044f78000f0037008d
:107860006e4290000482fb006802620043a2de00c8
:10787000044f7800090037006e4290000482fb003c
:107880007002620044a2de00044f7800030037005b
:107890000042eb00044f7800000000001e02900040
:1078a000044278000440780032e0b7009e4278003d
:1078b0000582fb00040078000080fa00000006004a
:1078c0000600fa0040479800514798002403200022
:1078d000144278000482fb00040f780006002100a7
:1078e000070020004e4290008482fb0004c020006c
:1078f00004aab90004027800050020000603420033
:1079000087834a005e4290000482fb004a22dd0029
:10791000050020000602420087824a00402ade005d
:1079200005002000044278000440780032e0b700ef
:1079300024042400043b88000400210005002000ea
:10794000040378005e4290008483fb004e42900066
:107950000482fb006322b900040278000482430021
:107960004a22dd0004024300140798009e029000a2
:107970001e029000850078000400780097e9070057
:1079800055ff07001e02780004427800044078008a
:1079900032e0b7000080fa00000006000c00fa0098
:1079a000204f98000002eb00040f78002403200011
:1079b000144278000482fb00340798000002eb00b8
:1079c00014079800030037001e0290000402e8002c
:1079d000140798001e029000e20f520009003c00bc
:1079e0001e0290000442780032c1b3008440780047
:1079f0002e4890005dff070000027800e10f520062
:107a0000f1ff320006002100070020002e4a9000fe
:107a10008482fb0004c0200004aab900040278009c
:107a2000050020000603420087834a001e029000e2
:107a30004a22dd00050020000602420087824a003b
:107a4000402ade000500200004427800044078004f
:107a500032e0b70004002100050020000403780094
:107a60002e4a90000482fb006322b9008402780051
:107a70001e029000048242004a22dd0004024300fc
:107a8000240798001e8fe8002e0290000482e80070
:107a9000240798002e029000040078003ae90700bd
:107aa00000027800044f9800f43f20009e02780006
:107ab000848f520003003c000e4a9000e14f4200c8
:107ac000f0ff3a00044020009e027800848f5200ac
:107ad00002003a000002eb00040f78003e02900022
:107ae000044278000440780032e0b7001e027800bb
:107af000040078000080fa00000006001400fa007c
:107b0000881f780020579800240320001442780032
:107b10000482fb00640798000002eb00040f780069
:107b2000010037001e0fe8001e027800e20f52002d
:107b300009003c001e0278000442780032c1b30004
:107b4000844078002e50900008ff07000002780063
:107b5000e10f5200f3ff32001e027800e30f5200e3
:107b600009003a006e029000044278000440780058
:107b700032e0b700743482000430a00074348a000c
:107b800034002000950137001e02e8001407980019
:107b90001e029000e30f520017003a000002eb00b3
:107ba00014079800150037001e0290000402e80038
:107bb000140798001e029000e30f520002003a00e2
:107bc0000002eb00140798001e0290009e0f520066
:107bd0000a003a006e0290000442780004407800e7
:107be00032e0b700743482000410a00074348a00bc
:107bf0001400200079013700000000001e029000f0
:107c00000442780042c1b300844078002e509000b6
:107c1000d6fe070000027800e00f5200e2ff3200bb
:107c200006002100070020002e5290008482fb00f5
:107c300004c0200004aab900040278000500200056
:107c40000603420087834a001e0290004a22dd009c
:107c5000050020000602420087824a00402ade001a
:107c600005002000044278000440780032e0b700ac
:107c70000400210005002000040378002e5290002b
:107c80000482fb006322b900840278001e02900087
:107c9000048242004a22dd000402430024079800c7
:107ca0002e5090003dff070000027800e00f5200c8
:107cb00003003200743482000420a00074348a006f
:107cc000e468240094427800654f98007434820080
:107cd0000400a10074348a000002eb00340798000d
:107ce00014002400043b8800ae0090000080eb00ec
:107cf000bae80700ae009000f00f2000b3e80700dc
:107d00002e0290000482e800240798000042eb0055
:107d1000044f98003e0290000402e80034079800e7
:107d20003a0037002e5290008482fb00f40f2000ae
:107d300004aab900840278000e4a90000482fb0075
:107d40000482420004007800f80107000002780075
:107d5000540798007434820061026200e00f520000
:107d600004003200743482000400a10074348a00dc
:107d70000f0037005e029000ae0090000400780013
:107d800096e807000e4a90000482fb00ae009000c7
:107d9000040078008de807002e0290000482e800bd
:107da000240798003e0290000402e800340798007f
:107db0000e4a90000442e800044f98000c0037007f
:107dc000ae0090000080eb0084e80700ae00900059
:107dd000f00f20007de807002e0290000482e800ea
:107de000240798003e0290000402e800340798003f
:107df0000e4a9000e14f420004003a00be0290009b
:107e0000f4032000848f5200edff34000e4a9000ee
:107e1000e14f420004003200be029000f403200053
:107e2000848f5200bfff34002bfe07000002eb00de
:107e3000340798000e4a9000e14f4200f3ff3a00e9
:107e4000e46824006e489000004a78000600210093
:107e5000070020002e5290008482fb0004c0200006
:107e600004aab900040278000500200006034200bd
:107e700087834a001e0290004a22dd000500200090
:107e80000602420087824a00402ade0005002000e8
:107e9000044278000440780032e0b700040021007a
:107ea00005002000040378002e5290000482fb009d
:107eb0006322b900840278001e029000048242000e
:107ec0004a22dd00040243000482e80024079800ef
:107ed0002e029000ae0290008502e800250798006f
:107ee0000400780028e8070000027800044f98009a
:107ef0002e029000ae0290008502e800250798004f
:107f00000400780022e80700000278005407980077
:107f1000270037002e5290008482fb00f40f2000cf
:107f200004aab900840278000e4a90000482fb0083
:107f300004824200040078007c01070000027800ff
:107f4000de029000850f5200090032006e029000a0
:107f5000044278000440780032e0b70074348200b4
:107f60000470a00074348a00740020009b00370065
:107f70002e029000ae0290008502e80025079800ce
:107f80000400780000e8070000027800044f980021
:107f90002e029000ae0290008502e80025079800ae
:107fa00004007800fae70700000278005407980000
:107fb0000e4a9000e14f4200d6ff3a000400210033
:107fc00005002000040378002e5290000482fb007c
:107fd0006322b900840278001e0278000482420005
:107fe0004a22dd0004024300040f9800040021002f
:107ff00005002000040378002e5290000482fb004c
:108000006322b900840278001e02900004824200bc
:108010004a22dd00040243002407980006002100e4
:10802000070020002e5290008482fb0004c0200034
:1080300004aab900040278000500200006034200eb
:1080400087834a001e0278004a22dd0005002000d6
:108050000602420087824a00402ade000500200016
:10806000044278000440780032e0b7000e08900027
:10807000c7e7070000027800540798000e08900038
:10808000c1e7070000027800044f98001e0290002c
:10809000e00f520003003a005e0290000402e80084
:1080a000540798005e029000e30f5200070036006c
:1080b000743482000410a00074348a008e4a900048
:1080c000f4ceb30004c26200044f98000600210001
:1080d000070020002e5290008482fb0004c0200084
:1080e00004aab9000402780005002000060342003b
:1080f00087834a001e0290004a22dd00050020000e
:108100000602420087824a00402ade000500200065
:10811000044278000440780032e0b7000e4a900034
:108120000482fb00ae00900004007800a7e707007f
:108130005e029000ae00900004007800a7e7070000
:1081400034002400043b880063fd07000e4a9000c1
:108150000484fb002e0090008be7070000027800eb
:10816000840f540007003a002e00900088e70700b3
:1081700000027800840278005e029000848f520032
:10818000090032006e02900004427800044078003a
:1081900032e0b700743482000470a00074348a00a6
:1081a000740020000d0037001e02780004427800a1
:1081b000844078002e509000c1fd07006e029000b0
:1081c000044278000440780032e0b7007434820042
:1081d0000402d100614262000482fb0004007800c6
:1081e0004f0478000080fa00000006000c00fa003e
:1081f00024032000144278000482fb003407980016
:108200000400210005002000402ade0005002000b7
:10821000044278000440780032e0b7000042eb00ee
:1082200044479800ba0037000042eb00044f780042
:108230000042eb00144798000002eb00440798004e
:108240000002eb0014079800030037001e029000a4
:108250000402e800140798001e029000e20f52008a
:1082600009003e001e0290000442780042c1b300a3
:10827000844078004e4090003cfd070000027800ea
:10828000e00f5200f1ff32001e029000e30f520097
:1082900009003a003e029000044278000440780051
:1082a00032e0b700743482000410a00074348a00f5
:1082b00014c0b3009a0037000002eb0014079800c6
:1082c0000d0037001e0290000442780032c1b30056
:1082d000844078004e40900024fd070000027800a2
:1082e000e00f520001003a001e4fe8001e0290000d
:1082f0000402e800140798001e029000e20f5200ea
:10830000f0ff36001e427800e04f52002c003a0089
:108310008040eb004e40900069fd07000600210000
:10832000070020004e4290008482fb0004c0200021
:1083300004aab900040278000500200006024200e9
:1083400087824a00402ade000500200004427800af
:108350000440780032e0b70004002100050020004e
:10836000040378004e4290008482fb0004c0200089
:1083700004aab900040278000402430054079800dc
:1083800034002400043b88005e02900084007800e2
:108390000000eb0011e707005e0290008400780007
:1083a000300f200009e70700cbfc07003e029000d9
:1083b000044278000440780032e0b70051003700f2
:1083c0001e427800e14f520005003a003e02900044
:1083d000044278000440780032e0b70049003700da
:1083e0001e427800e24f52003d003a0032c1b30015
:1083f00021c0b3004e409000dcfc07000002780072
:10840000e00f52000c003a0032c1b3008040eb0094
:108410004e409000d5fc070000027800e00f5200ab
:1084200005003a0024002000140798000042eb00e9
:10843000144798001b0037000002eb001407980057
:10844000030037001e0290000402e80014079800a1
:108450001e0290000442780032c1b30084407800cc
:108460004e409000c1fc070000027800e10f52006e
:1084700003003a001e029000e20f5200f1ff3600a6
:108480001e029000044278000442e800144798005d
:108490001e429000e34f520002003a000042eb00ff
:1084a000144798009e4090004e40900004fd070045
:1084b0004e40900039fd070000027800e00f5200a6
:1084c00002003a004e4090008cfd07003e029000f2
:1084d000044278000440780032e0b7000900370019
:1084e0003e029000044278000440780032e0b70079
:1084f000743482000460a00074348a0064c0b30045
:10850000070037004e4290000442e80044479800bc
:108510004e429000e14f520043ff36000042eb0014
:10852000044078000080fa00000006000e00fa0007
:1085300060079800ee029000d41f2000848f520044
:1085400005003600743482000450a00074348a00a0
:108550000082eb0079003700ee029000f40f20005b
:10856000110009008482d800000278006447980056
:1085700024032000144278000482fb004407980082
:108580000002eb00040f7800010037001e0fe80026
:108590001e027800e20f520009003e001e02780021
:1085a0000442780032c1b300844078006e409000ed
:1085b0006efc070000027800e10f5200f3ff32006a
:1085c0001e027800e30f520009003a004e029000ac
:1085d000044278000440780032e0b700743482002e
:1085e0000460a00074348a000082eb00530037005e
:1085f00006002100070020006e4290008482fb00ec
:1086000004c0200004aab90004027800050020007c
:108610000603420087834a001e0278004a22dd00da
:10862000050020000602420087824a00402ade0040
:1086300005002000044278000440780032e0b700d2
:108640000400210005002000040378006e42900021
:108650000482fb006322b900040278001e0242007b
:108660000402e8004a22dd00040243000482e9001b
:108670001407980004202000240798001e02900090
:108680000400780040e607000002780054079800d4
:108690001e0290000482e900140798002e02900048
:1086a0000402e900240798002e029000e00f520017
:1086b00009003200ee029000f40f200011000900c2
:1086c0008482d80001027800840278005e02900063
:1086d000848f5200e9ff3a002e029000e00f520012
:1086e00009003a00743482000400a00074348a0047
:1086f0004e029000044278000440780032e0b70057
:108700000082eb000d0037001e0290000482e8009a
:10871000140798001e029000040078001ce6070071
:1087200000027800540798004e029000044278003e
:108730000440780032e0b7005e0290000400780048
:108740000080fa00000006001200fa00700798008e
:10875000010f98008e0a9000d41f2000848f5200d1
:1087600005003600743482000450a00074348a007e
:1087700054c0b300d70037008e0a9000f40f2000d9
:10878000110009008482d8000002780014079800c4
:1087900024032000144278000482fb002407980080
:1087a00034002400043b88000002eb00040f780032
:1087b000010037001e0fe8001e027800e20f520091
:1087c0000b003c001e027800844278001e029000dc
:1087d0000442780032c1b30085407800044078003c
:1087e000e2fb070000027800e10f5200f1ff3200c7
:1087f0001e027800e30f520009003a002e0290009a
:10880000044278000440780032e0b70074348200fb
:108810000460a00074348a0064c0b300ad00370067
:1088200006002100070020009e02900004c02000e6
:1088300004aab900040278000500200006034200e3
:1088400087834a001e0278004a22dd0005002000ce
:108850000602420087824a00402ade00050020000e
:10886000044278000440780032e0b70004002100a0
:1088700005002000040378001e0290006322b90066
:10888000840278001e027800048242004a22dd0041
:108890000402430034079800e46824009440780000
:1088a000014f98000e08900020ff0700000278009a
:1088b000fe029000850f52000d003a0074348200d1
:1088c00061026200e00f520009003a002e0290009f
:1088d000044278000440780032e0b700e4682400e5
:1088e0008e489000014a78000042eb007900370082
:1088f000e46824008e4a9000054a78001e02900029
:10890000044278000440780024fc0700000278004c
:10891000540798005e029000e00f520009003a00f0
:108920002e029000044278000440780032e0b70044
:10893000743482000440a00074348a0044c0b30040
:1089400064003700be0290005e0290000482420084
:10895000340798007e029000be009000040078006a
:108960009ee507008e0a9000f40f20001100090018
:108970008482d80001027800be00900004007800d4
:1089800092e5070054fb0700000000000000000013
:108990003e0090007ee50700000278000442780067
:1089a000444f98004e4a90008482fb007e03900062
:1089b000f40f200004026300848f5200090032008b
:1089c0002e029000044278000440780032e0b700a4
:1089d000743482000470a00074348a0074c0b30040
:1089e0003c0037003e00900067e507000002780079
:1089f00004427800444f98004e4a90008482fb0065
:108a00000e0b9000f40f2000110009000483d80021
:108a100001027800848f5200090032002e0290007b
:108a2000044278000440780032e0b70074348200d9
:108a30000470a00074348a0074c0b30025003700ad
:108a40003e0290000402e800340798003e009000c7
:108a50004fe50700000278004822de00044278005b
:108a6000444f98004e4a90008482fb007e029000a2
:108a70004822de00848f5200090032002e0290004e
:108a8000044278000440780032e0b7007434820079
:108a90000470a00074348a0074c0b3000d00370065
:108aa000de029000e43f2000848f520004003a0070
:108ab0001e02900004427800044078000ffc07007a
